{
  "contractName": "SELToken",
  "abi": [
    {
      "inputs": [
        {
          "internalType": "uint256",
          "name": "total",
          "type": "uint256"
        }
      ],
      "stateMutability": "nonpayable",
      "type": "constructor"
    },
    {
      "anonymous": false,
      "inputs": [
        {
          "indexed": true,
          "internalType": "address",
          "name": "tokenOwner",
          "type": "address"
        },
        {
          "indexed": true,
          "internalType": "address",
          "name": "spender",
          "type": "address"
        },
        {
          "indexed": false,
          "internalType": "uint256",
          "name": "tokens",
          "type": "uint256"
        }
      ],
      "name": "Approval",
      "type": "event"
    },
    {
      "anonymous": false,
      "inputs": [
        {
          "indexed": true,
          "internalType": "address",
          "name": "from",
          "type": "address"
        },
        {
          "indexed": true,
          "internalType": "address",
          "name": "to",
          "type": "address"
        },
        {
          "indexed": false,
          "internalType": "uint256",
          "name": "tokens",
          "type": "uint256"
        }
      ],
      "name": "Transfer",
      "type": "event"
    },
    {
      "inputs": [],
      "name": "decimals",
      "outputs": [
        {
          "internalType": "uint8",
          "name": "",
          "type": "uint8"
        }
      ],
      "stateMutability": "view",
      "type": "function"
    },
    {
      "inputs": [],
      "name": "name",
      "outputs": [
        {
          "internalType": "string",
          "name": "",
          "type": "string"
        }
      ],
      "stateMutability": "view",
      "type": "function"
    },
    {
      "inputs": [],
      "name": "symbols",
      "outputs": [
        {
          "internalType": "string",
          "name": "",
          "type": "string"
        }
      ],
      "stateMutability": "view",
      "type": "function"
    },
    {
      "inputs": [],
      "name": "totalSupply_",
      "outputs": [
        {
          "internalType": "uint256",
          "name": "",
          "type": "uint256"
        }
      ],
      "stateMutability": "view",
      "type": "function"
    },
    {
      "inputs": [],
      "name": "totalSupply",
      "outputs": [
        {
          "internalType": "uint256",
          "name": "",
          "type": "uint256"
        }
      ],
      "stateMutability": "view",
      "type": "function"
    },
    {
      "inputs": [
        {
          "internalType": "address",
          "name": "tokenOwner",
          "type": "address"
        }
      ],
      "name": "balanceOf",
      "outputs": [
        {
          "internalType": "uint256",
          "name": "balance",
          "type": "uint256"
        }
      ],
      "stateMutability": "view",
      "type": "function"
    },
    {
      "inputs": [
        {
          "internalType": "address",
          "name": "tokenOwner",
          "type": "address"
        },
        {
          "internalType": "address",
          "name": "spender",
          "type": "address"
        }
      ],
      "name": "allowance",
      "outputs": [
        {
          "internalType": "uint256",
          "name": "remaining",
          "type": "uint256"
        }
      ],
      "stateMutability": "view",
      "type": "function"
    },
    {
      "inputs": [
        {
          "internalType": "address",
          "name": "to",
          "type": "address"
        },
        {
          "internalType": "uint256",
          "name": "tokens",
          "type": "uint256"
        }
      ],
      "name": "transfer",
      "outputs": [
        {
          "internalType": "bool",
          "name": "success",
          "type": "bool"
        }
      ],
      "stateMutability": "nonpayable",
      "type": "function"
    },
    {
      "inputs": [
        {
          "internalType": "address",
          "name": "spender",
          "type": "address"
        },
        {
          "internalType": "uint256",
          "name": "tokens",
          "type": "uint256"
        }
      ],
      "name": "approve",
      "outputs": [
        {
          "internalType": "bool",
          "name": "success",
          "type": "bool"
        }
      ],
      "stateMutability": "nonpayable",
      "type": "function"
    },
    {
      "inputs": [
        {
          "internalType": "address",
          "name": "from",
          "type": "address"
        },
        {
          "internalType": "address",
          "name": "to",
          "type": "address"
        },
        {
          "internalType": "uint256",
          "name": "tokens",
          "type": "uint256"
        }
      ],
      "name": "transferFrom",
      "outputs": [
        {
          "internalType": "bool",
          "name": "success",
          "type": "bool"
        }
      ],
      "stateMutability": "nonpayable",
      "type": "function"
    }
  ],
  "bytecode": "0x60806040523480156200001157600080fd5b50604051620016ae380380620016ae83398181016040528101906200003791906200029e565b6040518060400160405280600381526020017f53454c00000000000000000000000000000000000000000000000000000000008152506000908051906020019062000084929190620001d7565b506040518060400160405280600881526020017f53454c546f6b656e00000000000000000000000000000000000000000000000081525060019080519060200190620000d2929190620001d7565b506012600260006101000a81548160ff021916908360ff160217905550600260009054906101000a900460ff16600a6200010d919062000353565b816200011a919062000490565b600381905550600354600460003373ffffffffffffffffffffffffffffffffffffffff1673ffffffffffffffffffffffffffffffffffffffff168152602001908152602001600020819055503373ffffffffffffffffffffffffffffffffffffffff16600073ffffffffffffffffffffffffffffffffffffffff167fddf252ad1be2c89b69c2b068fc378daa952ba7f163c4a11628f55a4df523b3ef600354604051620001c89190620002db565b60405180910390a350620005c3565b828054620001e59062000508565b90600052602060002090601f01602090048101928262000209576000855562000255565b82601f106200022457805160ff191683800117855562000255565b8280016001018555821562000255579182015b828111156200025457825182559160200191906001019062000237565b5b50905062000264919062000268565b5090565b5b808211156200028357600081600090555060010162000269565b5090565b6000815190506200029881620005a9565b92915050565b600060208284031215620002b157600080fd5b6000620002c18482850162000287565b91505092915050565b620002d581620004f1565b82525050565b6000602082019050620002f26000830184620002ca565b92915050565b6000808291508390505b60018511156200034a578086048111156200032257620003216200053e565b5b6001851615620003325780820291505b808102905062000342856200059c565b945062000302565b94509492505050565b60006200036082620004f1565b91506200036d83620004fb565b92506200039c7fffffffffffffffffffffffffffffffffffffffffffffffffffffffffffffffff8484620003a4565b905092915050565b600082620003b6576001905062000489565b81620003c6576000905062000489565b8160018114620003df5760028114620003ea5762000420565b600191505062000489565b60ff841115620003ff57620003fe6200053e565b5b8360020a9150848211156200041957620004186200053e565b5b5062000489565b5060208310610133831016604e8410600b84101617156200045a5782820a9050838111156200045457620004536200053e565b5b62000489565b620004698484846001620002f8565b925090508184048111156200048357620004826200053e565b5b81810290505b9392505050565b60006200049d82620004f1565b9150620004aa83620004f1565b9250817fffffffffffffffffffffffffffffffffffffffffffffffffffffffffffffffff0483118215151615620004e657620004e56200053e565b5b828202905092915050565b6000819050919050565b600060ff82169050919050565b600060028204905060018216806200052157607f821691505b602082108114156200053857620005376200056d565b5b50919050565b7f4e487b7100000000000000000000000000000000000000000000000000000000600052601160045260246000fd5b7f4e487b7100000000000000000000000000000000000000000000000000000000600052602260045260246000fd5b60008160011c9050919050565b620005b481620004f1565b8114620005c057600080fd5b50565b6110db80620005d36000396000f3fe608060405234801561001057600080fd5b506004361061009e5760003560e01c8063313ce56711610066578063313ce5671461015d578063324536eb1461017b57806370a0823114610199578063a9059cbb146101c9578063dd62ed3e146101f95761009e565b806306fdde03146100a357806307039ff9146100c1578063095ea7b3146100df57806318160ddd1461010f57806323b872dd1461012d575b600080fd5b6100ab610229565b6040516100b89190610df0565b60405180910390f35b6100c96102b7565b6040516100d69190610df0565b60405180910390f35b6100f960048036038101906100f49190610c73565b610345565b6040516101069190610dd5565b60405180910390f35b610117610437565b6040516101249190610e72565b60405180910390f35b61014760048036038101906101429190610c24565b610441565b6040516101549190610dd5565b60405180910390f35b6101656107c1565b6040516101729190610e8d565b60405180910390f35b6101836107d4565b6040516101909190610e72565b60405180910390f35b6101b360048036038101906101ae9190610bbf565b6107da565b6040516101c09190610e72565b60405180910390f35b6101e360048036038101906101de9190610c73565b610823565b6040516101f09190610dd5565b60405180910390f35b610213600480360381019061020e9190610be8565b610a40565b6040516102209190610e72565b60405180910390f35b6001805461023690610fd6565b80601f016020809104026020016040519081016040528092919081815260200182805461026290610fd6565b80156102af5780601f10610284576101008083540402835291602001916102af565b820191906000526020600020905b81548152906001019060200180831161029257829003601f168201915b505050505081565b600080546102c490610fd6565b80601f01602080910402602001604051908101604052809291908181526020018280546102f090610fd6565b801561033d5780601f106103125761010080835404028352916020019161033d565b820191906000526020600020905b81548152906001019060200180831161032057829003601f168201915b505050505081565b600081600560003373ffffffffffffffffffffffffffffffffffffffff1673ffffffffffffffffffffffffffffffffffffffff16815260200190815260200160002060008573ffffffffffffffffffffffffffffffffffffffff1673ffffffffffffffffffffffffffffffffffffffff168152602001908152602001600020819055508273ffffffffffffffffffffffffffffffffffffffff163373ffffffffffffffffffffffffffffffffffffffff167f8c5be1e5ebec7d5bd14f71427d1e84f3dd0314c0f7b2291e5b200ac8c7c3b925846040516104259190610e72565b60405180910390a36001905092915050565b6000600354905090565b6000600460008573ffffffffffffffffffffffffffffffffffffffff1673ffffffffffffffffffffffffffffffffffffffff1681526020019081526020016000205482111561048f57600080fd5b600560008573ffffffffffffffffffffffffffffffffffffffff1673ffffffffffffffffffffffffffffffffffffffff16815260200190815260200160002060008473ffffffffffffffffffffffffffffffffffffffff1673ffffffffffffffffffffffffffffffffffffffff1681526020019081526020016000205482111561051857600080fd5b61056a82600460008773ffffffffffffffffffffffffffffffffffffffff1673ffffffffffffffffffffffffffffffffffffffff16815260200190815260200160002054610ac790919063ffffffff16565b600460008673ffffffffffffffffffffffffffffffffffffffff1673ffffffffffffffffffffffffffffffffffffffff1681526020019081526020016000208190555061063c82600560008773ffffffffffffffffffffffffffffffffffffffff1673ffffffffffffffffffffffffffffffffffffffff16815260200190815260200160002060003373ffffffffffffffffffffffffffffffffffffffff1673ffffffffffffffffffffffffffffffffffffffff16815260200190815260200160002054610ac790919063ffffffff16565b600560008673ffffffffffffffffffffffffffffffffffffffff1673ffffffffffffffffffffffffffffffffffffffff16815260200190815260200160002060003373ffffffffffffffffffffffffffffffffffffffff1673ffffffffffffffffffffffffffffffffffffffff1681526020019081526020016000208190555061070e82600460008673ffffffffffffffffffffffffffffffffffffffff1673ffffffffffffffffffffffffffffffffffffffff16815260200190815260200160002054610b2e90919063ffffffff16565b600460008573ffffffffffffffffffffffffffffffffffffffff1673ffffffffffffffffffffffffffffffffffffffff168152602001908152602001600020819055508273ffffffffffffffffffffffffffffffffffffffff168473ffffffffffffffffffffffffffffffffffffffff167fddf252ad1be2c89b69c2b068fc378daa952ba7f163c4a11628f55a4df523b3ef846040516107ae9190610e72565b60405180910390a3600190509392505050565b600260009054906101000a900460ff1681565b60035481565b6000600460008373ffffffffffffffffffffffffffffffffffffffff1673ffffffffffffffffffffffffffffffffffffffff168152602001908152602001600020549050919050565b6000600460003373ffffffffffffffffffffffffffffffffffffffff1673ffffffffffffffffffffffffffffffffffffffff168152602001908152602001600020548211156108a7576040517f08c379a000000000000000000000000000000000000000000000000000000000815260040161089e90610e52565b60405180910390fd5b6108f982600460003373ffffffffffffffffffffffffffffffffffffffff1673ffffffffffffffffffffffffffffffffffffffff16815260200190815260200160002054610ac790919063ffffffff16565b600460003373ffffffffffffffffffffffffffffffffffffffff1673ffffffffffffffffffffffffffffffffffffffff1681526020019081526020016000208190555061098e82600460008673ffffffffffffffffffffffffffffffffffffffff1673ffffffffffffffffffffffffffffffffffffffff16815260200190815260200160002054610b2e90919063ffffffff16565b600460008573ffffffffffffffffffffffffffffffffffffffff1673ffffffffffffffffffffffffffffffffffffffff168152602001908152602001600020819055508273ffffffffffffffffffffffffffffffffffffffff163373ffffffffffffffffffffffffffffffffffffffff167fddf252ad1be2c89b69c2b068fc378daa952ba7f163c4a11628f55a4df523b3ef84604051610a2e9190610e72565b60405180910390a36001905092915050565b6000600560008473ffffffffffffffffffffffffffffffffffffffff1673ffffffffffffffffffffffffffffffffffffffff16815260200190815260200160002060008373ffffffffffffffffffffffffffffffffffffffff1673ffffffffffffffffffffffffffffffffffffffff16815260200190815260200160002054905092915050565b60008183610ad59190610f1a565b9050828284610ae49190610f1a565b9150811115610b28576040517f08c379a0000000000000000000000000000000000000000000000000000000008152600401610b1f90610e32565b60405180910390fd5b92915050565b60008183610b3c9190610ec4565b9050828284610b4b9190610ec4565b9150811015610b8f576040517f08c379a0000000000000000000000000000000000000000000000000000000008152600401610b8690610e12565b60405180910390fd5b92915050565b600081359050610ba481611077565b92915050565b600081359050610bb98161108e565b92915050565b600060208284031215610bd157600080fd5b6000610bdf84828501610b95565b91505092915050565b60008060408385031215610bfb57600080fd5b6000610c0985828601610b95565b9250506020610c1a85828601610b95565b9150509250929050565b600080600060608486031215610c3957600080fd5b6000610c4786828701610b95565b9350506020610c5886828701610b95565b9250506040610c6986828701610baa565b9150509250925092565b60008060408385031215610c8657600080fd5b6000610c9485828601610b95565b9250506020610ca585828601610baa565b9150509250929050565b610cb881610f60565b82525050565b6000610cc982610ea8565b610cd38185610eb3565b9350610ce3818560208601610fa3565b610cec81611066565b840191505092915050565b6000610d04601183610eb3565b91507f6d61746820616464206f766572666c6f770000000000000000000000000000006000830152602082019050919050565b6000610d44601283610eb3565b91507f6d6174682073756220756e646572666c6f7700000000000000000000000000006000830152602082019050919050565b6000610d84601b83610eb3565b91507f496e7375666669656e7420746f6b656e20746f2062652073656e7400000000006000830152602082019050919050565b610dc081610f8c565b82525050565b610dcf81610f96565b82525050565b6000602082019050610dea6000830184610caf565b92915050565b60006020820190508181036000830152610e0a8184610cbe565b905092915050565b60006020820190508181036000830152610e2b81610cf7565b9050919050565b60006020820190508181036000830152610e4b81610d37565b9050919050565b60006020820190508181036000830152610e6b81610d77565b9050919050565b6000602082019050610e876000830184610db7565b92915050565b6000602082019050610ea26000830184610dc6565b92915050565b600081519050919050565b600082825260208201905092915050565b6000610ecf82610f8c565b9150610eda83610f8c565b9250827fffffffffffffffffffffffffffffffffffffffffffffffffffffffffffffffff03821115610f0f57610f0e611008565b5b828201905092915050565b6000610f2582610f8c565b9150610f3083610f8c565b925082821015610f4357610f42611008565b5b828203905092915050565b6000610f5982610f6c565b9050919050565b60008115159050919050565b600073ffffffffffffffffffffffffffffffffffffffff82169050919050565b6000819050919050565b600060ff82169050919050565b60005b83811015610fc1578082015181840152602081019050610fa6565b83811115610fd0576000848401525b50505050565b60006002820490506001821680610fee57607f821691505b6020821081141561100257611001611037565b5b50919050565b7f4e487b7100000000000000000000000000000000000000000000000000000000600052601160045260246000fd5b7f4e487b7100000000000000000000000000000000000000000000000000000000600052602260045260246000fd5b6000601f19601f8301169050919050565b61108081610f4e565b811461108b57600080fd5b50565b61109781610f8c565b81146110a257600080fd5b5056fea2646970667358221220f17f4a69c86ede60588a79da49a7481bd385c2d5e8135992e4584d7de2b014e764736f6c63430008000033",
  "immutableReferences": {},
  "source": "// SPDX-License-Identifier: MIT\n// ----------------------------------------------------------------------------\n// \"SELToken\" token contract\n//\n// Symbol      : SEL\n// Name        : SELToken\n// Total supply: 100000000\n// Decimals    : 18\n//\n// ----------------------------------------------------------------------------\n\nimport \"./SafeMath.sol\";\nimport \"./ERC20I.sol\";\npragma solidity ^0.8.0;\ncontract Owner {\n\taddress public owner;\n\taddress public  newOwner;\t\n\tevent OwnershipTransferred(address indexed _from, address indexed _to);\n\tconstructor() {\n\t\t\towner = msg.sender;\n\t}\n\n\tmodifier onlyOnwer() {\n\t\t\trequire(owner == msg.sender);\n\t\t\t_;\n\t}\n\tfunction transferOwnership(address _newOwner) public onlyOnwer {\n\t\t\tnewOwner = _newOwner;\n\t}\n\tfunction acceptOwnership() public {\n\t\trequire(newOwner == msg.sender);\n\t\temit OwnershipTransferred(owner, newOwner);\n\t\towner = newOwner;\n\t\tnewOwner = address(0);\n\t}\n}\n\ncontract SELToken is ERC20I{\n\tusing SafeMath for uint256;\n\n\tstring public symbols;\n\tstring public name;\n\tuint8 public decimals;\n\tuint public totalSupply_;\n    /* define an associative array whose keys are of type \"address\" to denote account number \n\t and whose value are used to store token balances\t*/\n\tmapping(address => uint) balances;\n\t/*\n\t\tthe second mapping object, allowed , will include all of the accounts approved to withdraw from a given\n\t\taccount together with the withdrawal sum allowed for each As you can see , the value field of allowed mapping is by itself\n\t\ta mapping plotting account adddress to its approved withdrawal sum.\t\t\n\t*/\n\tmapping(address => mapping(address => uint)) allowed;\n\n\tconstructor(uint total)  {\n\t\tsymbols = \"SEL\";\n\t\tname = \"SELToken\";\n\t\tdecimals = 18;\n\t\ttotalSupply_ = total * (10 ** decimals);\n\t\tbalances[msg.sender] = totalSupply_;\n\t\temit Transfer(address(0), msg.sender, totalSupply_);\n\t}\n\tfunction totalSupply() virtual public view override  returns (uint) {\n\t\t\treturn totalSupply_;\n\t}\n\tfunction balanceOf(address tokenOwner) virtual public view override  returns (uint balance) {\n\n\t\t\treturn balances[tokenOwner];\n\t}\t\n\tfunction allowance(address tokenOwner, address spender) virtual public view override returns (uint remaining) {\n\n\t\treturn allowed[tokenOwner][spender];\t\n\t}\n\tfunction transfer(address to, uint tokens) virtual public override returns (bool success) {\n\t\t\trequire(tokens <=balances[msg.sender], \"Insuffient token to be sent\");\n\t\t\tbalances[msg.sender] = balances[msg.sender].sub(tokens);\n\t\t\tbalances[to] = balances[to].add(tokens);\n\t\t\temit Transfer(msg.sender, to,  tokens);\n\t\t\treturn true;\n\t}\n\t/* \n\tIn short, delegated transaction, or \"meta transaction\" \n\tin blockchain is the type of transaction which performs \n\tan intended action on one account's behalf, while it is \n\tconducted (published) by another account (delegate), who actually pays fees for the transaction.\n\n\t*/\n\tfunction approve(address spender, uint tokens) virtual public override returns (bool success)\n\t{\n\t\t\tallowed[msg.sender][spender] = tokens;\n\t\t\temit Approval(msg.sender, spender, tokens);\n\t\t\treturn true;\n\t}\n\tfunction transferFrom(address from, address to, uint tokens) virtual public override returns (bool success){\n\t\t\trequire(tokens <=balances[from]);\n\t\t\trequire(tokens <= allowed[from][to]);\n\t\t\tbalances[from] = balances[from].sub(tokens);\n\t\t\tallowed[from][msg.sender] = allowed[from][msg.sender].sub(tokens);\n\t\t\tbalances[to] = balances[to].add(tokens);\n\t\t\temit Transfer(from, to, tokens);\n\t\t\treturn true;\n\t}\n}\n\n\n",
  "sourcePath": "/home/sna/project/bitriel-swap/contracts/SelToken.sol",
  "compiler": {
    "name": "solc",
    "version": "0.8.0+commit.c7dfd78e.Emscripten.clang"
  },
  "schemaVersion": "3.4.1",
  "updatedAt": "2021-06-08T14:08:27.537Z",
  "devdoc": {
    "kind": "dev",
    "methods": {},
    "version": 1
  },
  "userdoc": {
    "kind": "user",
    "methods": {},
    "version": 1
  }
}