{
  "contractName": "SELToken",
  "abi": [
    {
      "inputs": [],
      "stateMutability": "nonpayable",
      "type": "constructor"
    },
    {
      "anonymous": false,
      "inputs": [
        {
          "indexed": true,
          "internalType": "address",
          "name": "tokenOwner",
          "type": "address"
        },
        {
          "indexed": true,
          "internalType": "address",
          "name": "spender",
          "type": "address"
        },
        {
          "indexed": false,
          "internalType": "uint256",
          "name": "tokens",
          "type": "uint256"
        }
      ],
      "name": "Approval",
      "type": "event"
    },
    {
      "anonymous": false,
      "inputs": [
        {
          "indexed": true,
          "internalType": "address",
          "name": "from",
          "type": "address"
        },
        {
          "indexed": true,
          "internalType": "address",
          "name": "to",
          "type": "address"
        },
        {
          "indexed": false,
          "internalType": "uint256",
          "name": "tokens",
          "type": "uint256"
        }
      ],
      "name": "Transfer",
      "type": "event"
    },
    {
      "inputs": [],
      "name": "_totalSupply",
      "outputs": [
        {
          "internalType": "uint256",
          "name": "",
          "type": "uint256"
        }
      ],
      "stateMutability": "view",
      "type": "function"
    },
    {
      "inputs": [],
      "name": "decimals",
      "outputs": [
        {
          "internalType": "uint8",
          "name": "",
          "type": "uint8"
        }
      ],
      "stateMutability": "view",
      "type": "function"
    },
    {
      "inputs": [],
      "name": "name",
      "outputs": [
        {
          "internalType": "string",
          "name": "",
          "type": "string"
        }
      ],
      "stateMutability": "view",
      "type": "function"
    },
    {
      "inputs": [],
      "name": "symbols",
      "outputs": [
        {
          "internalType": "string",
          "name": "",
          "type": "string"
        }
      ],
      "stateMutability": "view",
      "type": "function"
    },
    {
      "inputs": [],
      "name": "totalSupply",
      "outputs": [
        {
          "internalType": "uint256",
          "name": "",
          "type": "uint256"
        }
      ],
      "stateMutability": "view",
      "type": "function"
    },
    {
      "inputs": [
        {
          "internalType": "address",
          "name": "tokenOwner",
          "type": "address"
        }
      ],
      "name": "balanceOf",
      "outputs": [
        {
          "internalType": "uint256",
          "name": "balance",
          "type": "uint256"
        }
      ],
      "stateMutability": "view",
      "type": "function"
    },
    {
      "inputs": [
        {
          "internalType": "address",
          "name": "tokenOwner",
          "type": "address"
        },
        {
          "internalType": "address",
          "name": "spender",
          "type": "address"
        }
      ],
      "name": "allowance",
      "outputs": [
        {
          "internalType": "uint256",
          "name": "remaining",
          "type": "uint256"
        }
      ],
      "stateMutability": "view",
      "type": "function"
    },
    {
      "inputs": [
        {
          "internalType": "address",
          "name": "to",
          "type": "address"
        },
        {
          "internalType": "uint256",
          "name": "tokens",
          "type": "uint256"
        }
      ],
      "name": "transfer",
      "outputs": [
        {
          "internalType": "bool",
          "name": "success",
          "type": "bool"
        }
      ],
      "stateMutability": "nonpayable",
      "type": "function"
    },
    {
      "inputs": [
        {
          "internalType": "address",
          "name": "spender",
          "type": "address"
        },
        {
          "internalType": "uint256",
          "name": "tokens",
          "type": "uint256"
        }
      ],
      "name": "approve",
      "outputs": [
        {
          "internalType": "bool",
          "name": "success",
          "type": "bool"
        }
      ],
      "stateMutability": "nonpayable",
      "type": "function"
    },
    {
      "inputs": [
        {
          "internalType": "address",
          "name": "from",
          "type": "address"
        },
        {
          "internalType": "address",
          "name": "to",
          "type": "address"
        },
        {
          "internalType": "uint256",
          "name": "tokens",
          "type": "uint256"
        }
      ],
      "name": "transferFrom",
      "outputs": [
        {
          "internalType": "bool",
          "name": "success",
          "type": "bool"
        }
      ],
      "stateMutability": "nonpayable",
      "type": "function"
    }
  ],
  "bytecode": "0x608060405234801561001057600080fd5b506040518060400160405280600381526020017f53454c00000000000000000000000000000000000000000000000000000000008152506000908051906020019061005c9291906100d5565b506040518060400160405280600881526020017f53454c546f6b656e000000000000000000000000000000000000000000000000815250600190805190602001906100a89291906100d5565b506012600260006101000a81548160ff021916908360ff1602179055506305f5e1006003819055506101d9565b8280546100e190610178565b90600052602060002090601f016020900481019282610103576000855561014a565b82601f1061011c57805160ff191683800117855561014a565b8280016001018555821561014a579182015b8281111561014957825182559160200191906001019061012e565b5b509050610157919061015b565b5090565b5b8082111561017457600081600090555060010161015c565b5090565b6000600282049050600182168061019057607f821691505b602082108114156101a4576101a36101aa565b5b50919050565b7f4e487b7100000000000000000000000000000000000000000000000000000000600052602260045260246000fd5b61070c806101e86000396000f3fe608060405234801561001057600080fd5b506004361061009e5760003560e01c8063313ce56711610066578063313ce5671461015d5780633eaaf86b1461017b57806370a0823114610199578063a9059cbb146101c9578063dd62ed3e146101f95761009e565b806306fdde03146100a357806307039ff9146100c1578063095ea7b3146100df57806318160ddd1461010f57806323b872dd1461012d575b600080fd5b6100ab610229565b6040516100b8919061053a565b60405180910390f35b6100c96102b7565b6040516100d6919061053a565b60405180910390f35b6100f960048036038101906100f4919061047d565b610345565b604051610106919061051f565b60405180910390f35b610117610351565b604051610124919061055c565b60405180910390f35b6101476004803603810190610142919061042e565b610356565b604051610154919061051f565b60405180910390f35b610165610363565b6040516101729190610577565b60405180910390f35b610183610376565b604051610190919061055c565b60405180910390f35b6101b360048036038101906101ae91906103c9565b61037c565b6040516101c0919061055c565b60405180910390f35b6101e360048036038101906101de919061047d565b610387565b6040516101f0919061051f565b60405180910390f35b610213600480360381019061020e91906103f2565b610393565b604051610220919061055c565b60405180910390f35b6001805461023690610636565b80601f016020809104026020016040519081016040528092919081815260200182805461026290610636565b80156102af5780601f10610284576101008083540402835291602001916102af565b820191906000526020600020905b81548152906001019060200180831161029257829003601f168201915b505050505081565b600080546102c490610636565b80601f01602080910402602001604051908101604052809291908181526020018280546102f090610636565b801561033d5780601f106103125761010080835404028352916020019161033d565b820191906000526020600020905b81548152906001019060200180831161032057829003601f168201915b505050505081565b60006001905092915050565b600090565b6000600190509392505050565b600260009054906101000a900460ff1681565b60035481565b600060649050919050565b60006001905092915050565b6000600a905092915050565b6000813590506103ae816106a8565b92915050565b6000813590506103c3816106bf565b92915050565b6000602082840312156103db57600080fd5b60006103e98482850161039f565b91505092915050565b6000806040838503121561040557600080fd5b60006104138582860161039f565b92505060206104248582860161039f565b9150509250929050565b60008060006060848603121561044357600080fd5b60006104518682870161039f565b93505060206104628682870161039f565b9250506040610473868287016103b4565b9150509250925092565b6000806040838503121561049057600080fd5b600061049e8582860161039f565b92505060206104af858286016103b4565b9150509250929050565b6104c2816105c0565b82525050565b60006104d382610592565b6104dd818561059d565b93506104ed818560208601610603565b6104f681610697565b840191505092915050565b61050a816105ec565b82525050565b610519816105f6565b82525050565b600060208201905061053460008301846104b9565b92915050565b6000602082019050818103600083015261055481846104c8565b905092915050565b60006020820190506105716000830184610501565b92915050565b600060208201905061058c6000830184610510565b92915050565b600081519050919050565b600082825260208201905092915050565b60006105b9826105cc565b9050919050565b60008115159050919050565b600073ffffffffffffffffffffffffffffffffffffffff82169050919050565b6000819050919050565b600060ff82169050919050565b60005b83811015610621578082015181840152602081019050610606565b83811115610630576000848401525b50505050565b6000600282049050600182168061064e57607f821691505b6020821081141561066257610661610668565b5b50919050565b7f4e487b7100000000000000000000000000000000000000000000000000000000600052602260045260246000fd5b6000601f19601f8301169050919050565b6106b1816105ae565b81146106bc57600080fd5b50565b6106c8816105ec565b81146106d357600080fd5b5056fea2646970667358221220aaa22c736f7c3fba4c8aeacad2cfa52aec31cfe1c413921ce2e2ba45632b18f664736f6c63430008000033",
  "immutableReferences": {},
  "source": "// SPDX-License-Identifier: MIT\n// ----------------------------------------------------------------------------\n// \"SELToken\" token contract\n//\n// Deployed to : \n// Symbol      : SEL\n// Name        : SELToken\n// Total supply: 100000000\n// Decimals    : 18\n//\n// ----------------------------------------------------------------------------\n\nimport \"./SafeMath.sol\";\nimport \"./ERC20I.sol\";\n\ncontract Owner {\n\taddress public owner;\n\taddress public  newOwner;\t\n\tevent OwnershipTransferred(address indexed _from, address indexed _to);\n\tconstructor() public{\n\t\t\towner = msg.sender;\n\t}\n\n\tmodifier onlyOnwer() {\n\t\t\trequire(owner == msg.sender);\n\t\t\t_;\n\t}\n\tfunction transferOwnership(address _newOwner) public onlyOnwer {\n\t\t\tnewOwner = _newOwner;\n\t}\n\tfunction acceptOwnership() public {\n\t\trequire(newOwner == msg.sender);\n\t\temit OwnershipTransferred(owner, newOwner);\n\t\towner = newOwner;\n\t\tnewOwner = address(0);\n\t}\n}\n\ncontract SELToken is ERC20I, SafeMath{\n\tstring public symbols;\n\tstring public name;\n\tuint8 public decimals;\n\tuint public _totalSupply;\n    /* define an associative array whose keys are of type \"address\" to denote account number \n\t and whose value are used to store token balances\t*/\n\tmapping(address => uint) balances;\n\t/*\n\t\tthe second mapping object, allowed , will include all of the accounts approved to withdraw from a given\n\t\taccount together with the withdrawal sum allowed for each As you can see , the value field of allowed mapping is by itself\n\t\ta mapping plotting account adddress to its approved withdrawal sum.\t\t\n\t*/\n\tmapping(address => mapping(address => uint)) allowed;\n\n\tconstructor() public {\n\t\tsymbols = \"SEL\";\n\t\tname = \"SELToken\";\n\t\tdecimals = 18;\n\t\t_totalSupply = 100000000;\n\t}\n\n\tfunction totalSupply() virtual public view override  returns (uint) {\n\t// !implementation\t\n\t\t\treturn 0;\n\t}\n\tfunction balanceOf(address tokenOwner) virtual public view override  returns (uint balance) {\n    // !implementation\n\t\t\treturn 100;\n\t}\n\tfunction allowance(address tokenOwner, address spender) virtual public view override returns (uint remaining) {\n    // !implementation\n\t\t\treturn 10;\n\t}\n\tfunction transfer(address to, uint tokens) virtual public override returns (bool success) {\n    // !implementation\n\t\t\treturn true;\n\t}\n\tfunction approve(address spender, uint tokens) virtual public override returns (bool success){\n    // !implementation\n\t\t\treturn true;\n\t}\n\tfunction transferFrom(address from, address to, uint tokens) virtual public override returns (bool success){\n    // !implementation\n\t\t\treturn true;\n\t}\n}\n\n\n",
  "sourcePath": "/home/sna/project/bitriel-swap/contracts/SelToken.sol",
  "compiler": {
    "name": "solc",
    "version": "0.8.0+commit.c7dfd78e.Emscripten.clang"
  },
  "schemaVersion": "3.4.1",
  "updatedAt": "2021-06-04T16:13:28.049Z",
  "devdoc": {
    "kind": "dev",
    "methods": {},
    "version": 1
  },
  "userdoc": {
    "kind": "user",
    "methods": {},
    "version": 1
  }
}