{
  "contractName": "SELToken",
  "abi": [
    {
      "inputs": [
        {
          "internalType": "uint256",
          "name": "total",
          "type": "uint256"
        }
      ],
      "stateMutability": "nonpayable",
      "type": "constructor"
    },
    {
      "anonymous": false,
      "inputs": [
        {
          "indexed": true,
          "internalType": "address",
          "name": "tokenOwner",
          "type": "address"
        },
        {
          "indexed": true,
          "internalType": "address",
          "name": "spender",
          "type": "address"
        },
        {
          "indexed": false,
          "internalType": "uint256",
          "name": "tokens",
          "type": "uint256"
        }
      ],
      "name": "Approval",
      "type": "event"
    },
    {
      "anonymous": false,
      "inputs": [
        {
          "indexed": true,
          "internalType": "address",
          "name": "_from",
          "type": "address"
        },
        {
          "indexed": true,
          "internalType": "address",
          "name": "_to",
          "type": "address"
        }
      ],
      "name": "OwnershipTransferred",
      "type": "event"
    },
    {
      "anonymous": false,
      "inputs": [
        {
          "indexed": true,
          "internalType": "address",
          "name": "from",
          "type": "address"
        },
        {
          "indexed": true,
          "internalType": "address",
          "name": "to",
          "type": "address"
        },
        {
          "indexed": false,
          "internalType": "uint256",
          "name": "tokens",
          "type": "uint256"
        }
      ],
      "name": "Transfer",
      "type": "event"
    },
    {
      "inputs": [],
      "name": "acceptOwnership",
      "outputs": [],
      "stateMutability": "nonpayable",
      "type": "function"
    },
    {
      "inputs": [],
      "name": "decimals",
      "outputs": [
        {
          "internalType": "uint8",
          "name": "",
          "type": "uint8"
        }
      ],
      "stateMutability": "view",
      "type": "function"
    },
    {
      "inputs": [],
      "name": "name",
      "outputs": [
        {
          "internalType": "string",
          "name": "",
          "type": "string"
        }
      ],
      "stateMutability": "view",
      "type": "function"
    },
    {
      "inputs": [],
      "name": "newOwner",
      "outputs": [
        {
          "internalType": "address",
          "name": "",
          "type": "address"
        }
      ],
      "stateMutability": "view",
      "type": "function"
    },
    {
      "inputs": [],
      "name": "owner",
      "outputs": [
        {
          "internalType": "address",
          "name": "",
          "type": "address"
        }
      ],
      "stateMutability": "view",
      "type": "function"
    },
    {
      "inputs": [],
      "name": "symbols",
      "outputs": [
        {
          "internalType": "string",
          "name": "",
          "type": "string"
        }
      ],
      "stateMutability": "view",
      "type": "function"
    },
    {
      "inputs": [],
      "name": "totalSupply_",
      "outputs": [
        {
          "internalType": "uint256",
          "name": "",
          "type": "uint256"
        }
      ],
      "stateMutability": "view",
      "type": "function"
    },
    {
      "inputs": [
        {
          "internalType": "address",
          "name": "_newOwner",
          "type": "address"
        }
      ],
      "name": "transferOwnership",
      "outputs": [],
      "stateMutability": "nonpayable",
      "type": "function"
    },
    {
      "inputs": [],
      "name": "totalSupply",
      "outputs": [
        {
          "internalType": "uint256",
          "name": "",
          "type": "uint256"
        }
      ],
      "stateMutability": "view",
      "type": "function"
    },
    {
      "inputs": [
        {
          "internalType": "address",
          "name": "tokenOwner",
          "type": "address"
        }
      ],
      "name": "balanceOf",
      "outputs": [
        {
          "internalType": "uint256",
          "name": "balance",
          "type": "uint256"
        }
      ],
      "stateMutability": "view",
      "type": "function"
    },
    {
      "inputs": [
        {
          "internalType": "address",
          "name": "tokenOwner",
          "type": "address"
        },
        {
          "internalType": "address",
          "name": "spender",
          "type": "address"
        }
      ],
      "name": "allowance",
      "outputs": [
        {
          "internalType": "uint256",
          "name": "remaining",
          "type": "uint256"
        }
      ],
      "stateMutability": "view",
      "type": "function"
    },
    {
      "inputs": [
        {
          "internalType": "address",
          "name": "to",
          "type": "address"
        },
        {
          "internalType": "uint256",
          "name": "tokens",
          "type": "uint256"
        }
      ],
      "name": "transfer",
      "outputs": [
        {
          "internalType": "bool",
          "name": "success",
          "type": "bool"
        }
      ],
      "stateMutability": "nonpayable",
      "type": "function"
    },
    {
      "inputs": [
        {
          "internalType": "address",
          "name": "spender",
          "type": "address"
        },
        {
          "internalType": "uint256",
          "name": "tokens",
          "type": "uint256"
        }
      ],
      "name": "approve",
      "outputs": [
        {
          "internalType": "bool",
          "name": "success",
          "type": "bool"
        }
      ],
      "stateMutability": "nonpayable",
      "type": "function"
    },
    {
      "inputs": [
        {
          "internalType": "address",
          "name": "from",
          "type": "address"
        },
        {
          "internalType": "address",
          "name": "to",
          "type": "address"
        },
        {
          "internalType": "uint256",
          "name": "tokens",
          "type": "uint256"
        }
      ],
      "name": "transferFrom",
      "outputs": [
        {
          "internalType": "bool",
          "name": "success",
          "type": "bool"
        }
      ],
      "stateMutability": "nonpayable",
      "type": "function"
    },
    {
      "inputs": [
        {
          "internalType": "address",
          "name": "tokenAddress",
          "type": "address"
        },
        {
          "internalType": "uint256",
          "name": "tokens",
          "type": "uint256"
        }
      ],
      "name": "transferTokenImplERC20",
      "outputs": [
        {
          "internalType": "bool",
          "name": "success",
          "type": "bool"
        }
      ],
      "stateMutability": "nonpayable",
      "type": "function"
    }
  ],
  "bytecode": "0x60806040523480156200001157600080fd5b5060405162001c1038038062001c108339818101604052810190620000379190620002de565b336000806101000a81548173ffffffffffffffffffffffffffffffffffffffff021916908373ffffffffffffffffffffffffffffffffffffffff1602179055506040518060400160405280600381526020017f53454c000000000000000000000000000000000000000000000000000000000081525060029080519060200190620000c492919062000217565b506040518060400160405280600881526020017f53454c546f6b656e000000000000000000000000000000000000000000000000815250600390805190602001906200011292919062000217565b506012600460006101000a81548160ff021916908360ff160217905550600460009054906101000a900460ff16600a6200014d919062000393565b816200015a9190620004d0565b600581905550600554600660003373ffffffffffffffffffffffffffffffffffffffff1673ffffffffffffffffffffffffffffffffffffffff168152602001908152602001600020819055503373ffffffffffffffffffffffffffffffffffffffff16600073ffffffffffffffffffffffffffffffffffffffff167fddf252ad1be2c89b69c2b068fc378daa952ba7f163c4a11628f55a4df523b3ef6005546040516200020891906200031b565b60405180910390a35062000603565b828054620002259062000548565b90600052602060002090601f01602090048101928262000249576000855562000295565b82601f106200026457805160ff191683800117855562000295565b8280016001018555821562000295579182015b828111156200029457825182559160200191906001019062000277565b5b509050620002a49190620002a8565b5090565b5b80821115620002c3576000816000905550600101620002a9565b5090565b600081519050620002d881620005e9565b92915050565b600060208284031215620002f157600080fd5b60006200030184828501620002c7565b91505092915050565b620003158162000531565b82525050565b60006020820190506200033260008301846200030a565b92915050565b6000808291508390505b60018511156200038a578086048111156200036257620003616200057e565b5b6001851615620003725780820291505b80810290506200038285620005dc565b945062000342565b94509492505050565b6000620003a08262000531565b9150620003ad836200053b565b9250620003dc7fffffffffffffffffffffffffffffffffffffffffffffffffffffffffffffffff8484620003e4565b905092915050565b600082620003f65760019050620004c9565b81620004065760009050620004c9565b81600181146200041f57600281146200042a5762000460565b6001915050620004c9565b60ff8411156200043f576200043e6200057e565b5b8360020a9150848211156200045957620004586200057e565b5b50620004c9565b5060208310610133831016604e8410600b84101617156200049a5782820a9050838111156200049457620004936200057e565b5b620004c9565b620004a9848484600162000338565b92509050818404811115620004c357620004c26200057e565b5b81810290505b9392505050565b6000620004dd8262000531565b9150620004ea8362000531565b9250817fffffffffffffffffffffffffffffffffffffffffffffffffffffffffffffffff04831182151516156200052657620005256200057e565b5b828202905092915050565b6000819050919050565b600060ff82169050919050565b600060028204905060018216806200056157607f821691505b60208210811415620005785762000577620005ad565b5b50919050565b7f4e487b7100000000000000000000000000000000000000000000000000000000600052601160045260246000fd5b7f4e487b7100000000000000000000000000000000000000000000000000000000600052602260045260246000fd5b60008160011c9050919050565b620005f48162000531565b81146200060057600080fd5b50565b6115fd80620006136000396000f3fe608060405234801561001057600080fd5b50600436106100f55760003560e01c806370a0823111610097578063a9059cbb11610066578063a9059cbb14610278578063d4ee1d90146102a8578063dd62ed3e146102c6578063f2fde38b146102f6576100f5565b806370a08231146101f05780637958dd231461022057806379ba5097146102505780638da5cb5b1461025a576100f5565b806318160ddd116100d357806318160ddd1461016657806323b872dd14610184578063313ce567146101b4578063324536eb146101d2576100f5565b806306fdde03146100fa57806307039ff914610118578063095ea7b314610136575b600080fd5b610102610312565b60405161010f91906112fb565b60405180910390f35b6101206103a0565b60405161012d91906112fb565b60405180910390f35b610150600480360381019061014b9190611102565b61042e565b60405161015d91906112e0565b60405180910390f35b61016e610520565b60405161017b919061137d565b60405180910390f35b61019e600480360381019061019991906110b3565b61052a565b6040516101ab91906112e0565b60405180910390f35b6101bc6108aa565b6040516101c99190611398565b60405180910390f35b6101da6108bd565b6040516101e7919061137d565b60405180910390f35b61020a6004803603810190610205919061104e565b6108c3565b604051610217919061137d565b60405180910390f35b61023a60048036038101906102359190611102565b61090c565b60405161024791906112e0565b60405180910390f35b610258610a1b565b005b610262610bb7565b60405161026f919061129c565b60405180910390f35b610292600480360381019061028d9190611102565b610bdb565b60405161029f91906112e0565b60405180910390f35b6102b0610df8565b6040516102bd919061129c565b60405180910390f35b6102e060048036038101906102db9190611077565b610e1e565b6040516102ed919061137d565b60405180910390f35b610310600480360381019061030b919061104e565b610ea5565b005b6003805461031f906114e1565b80601f016020809104026020016040519081016040528092919081815260200182805461034b906114e1565b80156103985780601f1061036d57610100808354040283529160200191610398565b820191906000526020600020905b81548152906001019060200180831161037b57829003601f168201915b505050505081565b600280546103ad906114e1565b80601f01602080910402602001604051908101604052809291908181526020018280546103d9906114e1565b80156104265780601f106103fb57610100808354040283529160200191610426565b820191906000526020600020905b81548152906001019060200180831161040957829003601f168201915b505050505081565b600081600760003373ffffffffffffffffffffffffffffffffffffffff1673ffffffffffffffffffffffffffffffffffffffff16815260200190815260200160002060008573ffffffffffffffffffffffffffffffffffffffff1673ffffffffffffffffffffffffffffffffffffffff168152602001908152602001600020819055508273ffffffffffffffffffffffffffffffffffffffff163373ffffffffffffffffffffffffffffffffffffffff167f8c5be1e5ebec7d5bd14f71427d1e84f3dd0314c0f7b2291e5b200ac8c7c3b9258460405161050e919061137d565b60405180910390a36001905092915050565b6000600554905090565b6000600660008573ffffffffffffffffffffffffffffffffffffffff1673ffffffffffffffffffffffffffffffffffffffff1681526020019081526020016000205482111561057857600080fd5b600760008573ffffffffffffffffffffffffffffffffffffffff1673ffffffffffffffffffffffffffffffffffffffff16815260200190815260200160002060008473ffffffffffffffffffffffffffffffffffffffff1673ffffffffffffffffffffffffffffffffffffffff1681526020019081526020016000205482111561060157600080fd5b61065382600660008773ffffffffffffffffffffffffffffffffffffffff1673ffffffffffffffffffffffffffffffffffffffff16815260200190815260200160002054610f4190919063ffffffff16565b600660008673ffffffffffffffffffffffffffffffffffffffff1673ffffffffffffffffffffffffffffffffffffffff1681526020019081526020016000208190555061072582600760008773ffffffffffffffffffffffffffffffffffffffff1673ffffffffffffffffffffffffffffffffffffffff16815260200190815260200160002060003373ffffffffffffffffffffffffffffffffffffffff1673ffffffffffffffffffffffffffffffffffffffff16815260200190815260200160002054610f4190919063ffffffff16565b600760008673ffffffffffffffffffffffffffffffffffffffff1673ffffffffffffffffffffffffffffffffffffffff16815260200190815260200160002060003373ffffffffffffffffffffffffffffffffffffffff1673ffffffffffffffffffffffffffffffffffffffff168152602001908152602001600020819055506107f782600660008673ffffffffffffffffffffffffffffffffffffffff1673ffffffffffffffffffffffffffffffffffffffff16815260200190815260200160002054610fa890919063ffffffff16565b600660008573ffffffffffffffffffffffffffffffffffffffff1673ffffffffffffffffffffffffffffffffffffffff168152602001908152602001600020819055508273ffffffffffffffffffffffffffffffffffffffff168473ffffffffffffffffffffffffffffffffffffffff167fddf252ad1be2c89b69c2b068fc378daa952ba7f163c4a11628f55a4df523b3ef84604051610897919061137d565b60405180910390a3600190509392505050565b600460009054906101000a900460ff1681565b60055481565b6000600660008373ffffffffffffffffffffffffffffffffffffffff1673ffffffffffffffffffffffffffffffffffffffff168152602001908152602001600020549050919050565b60003373ffffffffffffffffffffffffffffffffffffffff1660008054906101000a900473ffffffffffffffffffffffffffffffffffffffff1673ffffffffffffffffffffffffffffffffffffffff161461096657600080fd5b8273ffffffffffffffffffffffffffffffffffffffff1663a9059cbb60008054906101000a900473ffffffffffffffffffffffffffffffffffffffff16846040518363ffffffff1660e01b81526004016109c19291906112b7565b602060405180830381600087803b1580156109db57600080fd5b505af11580156109ef573d6000803e3d6000fd5b505050506040513d601f19601f82011682018060405250810190610a13919061113e565b905092915050565b3373ffffffffffffffffffffffffffffffffffffffff16600160009054906101000a900473ffffffffffffffffffffffffffffffffffffffff1673ffffffffffffffffffffffffffffffffffffffff1614610a7557600080fd5b600160009054906101000a900473ffffffffffffffffffffffffffffffffffffffff1673ffffffffffffffffffffffffffffffffffffffff1660008054906101000a900473ffffffffffffffffffffffffffffffffffffffff1673ffffffffffffffffffffffffffffffffffffffff167f8be0079c531659141344cd1fd0a4f28419497f9722a3daafe3b4186f6b6457e060405160405180910390a3600160009054906101000a900473ffffffffffffffffffffffffffffffffffffffff166000806101000a81548173ffffffffffffffffffffffffffffffffffffffff021916908373ffffffffffffffffffffffffffffffffffffffff1602179055506000600160006101000a81548173ffffffffffffffffffffffffffffffffffffffff021916908373ffffffffffffffffffffffffffffffffffffffff160217905550565b60008054906101000a900473ffffffffffffffffffffffffffffffffffffffff1681565b6000600660003373ffffffffffffffffffffffffffffffffffffffff1673ffffffffffffffffffffffffffffffffffffffff16815260200190815260200160002054821115610c5f576040517f08c379a0000000000000000000000000000000000000000000000000000000008152600401610c569061135d565b60405180910390fd5b610cb182600660003373ffffffffffffffffffffffffffffffffffffffff1673ffffffffffffffffffffffffffffffffffffffff16815260200190815260200160002054610f4190919063ffffffff16565b600660003373ffffffffffffffffffffffffffffffffffffffff1673ffffffffffffffffffffffffffffffffffffffff16815260200190815260200160002081905550610d4682600660008673ffffffffffffffffffffffffffffffffffffffff1673ffffffffffffffffffffffffffffffffffffffff16815260200190815260200160002054610fa890919063ffffffff16565b600660008573ffffffffffffffffffffffffffffffffffffffff1673ffffffffffffffffffffffffffffffffffffffff168152602001908152602001600020819055508273ffffffffffffffffffffffffffffffffffffffff163373ffffffffffffffffffffffffffffffffffffffff167fddf252ad1be2c89b69c2b068fc378daa952ba7f163c4a11628f55a4df523b3ef84604051610de6919061137d565b60405180910390a36001905092915050565b600160009054906101000a900473ffffffffffffffffffffffffffffffffffffffff1681565b6000600760008473ffffffffffffffffffffffffffffffffffffffff1673ffffffffffffffffffffffffffffffffffffffff16815260200190815260200160002060008373ffffffffffffffffffffffffffffffffffffffff1673ffffffffffffffffffffffffffffffffffffffff16815260200190815260200160002054905092915050565b3373ffffffffffffffffffffffffffffffffffffffff1660008054906101000a900473ffffffffffffffffffffffffffffffffffffffff1673ffffffffffffffffffffffffffffffffffffffff1614610efd57600080fd5b80600160006101000a81548173ffffffffffffffffffffffffffffffffffffffff021916908373ffffffffffffffffffffffffffffffffffffffff16021790555050565b60008183610f4f9190611425565b9050828284610f5e9190611425565b9150811115610fa2576040517f08c379a0000000000000000000000000000000000000000000000000000000008152600401610f999061133d565b60405180910390fd5b92915050565b60008183610fb691906113cf565b9050828284610fc591906113cf565b9150811015611009576040517f08c379a00000000000000000000000000000000000000000000000000000000081526004016110009061131d565b60405180910390fd5b92915050565b60008135905061101e81611582565b92915050565b60008151905061103381611599565b92915050565b600081359050611048816115b0565b92915050565b60006020828403121561106057600080fd5b600061106e8482850161100f565b91505092915050565b6000806040838503121561108a57600080fd5b60006110988582860161100f565b92505060206110a98582860161100f565b9150509250929050565b6000806000606084860312156110c857600080fd5b60006110d68682870161100f565b93505060206110e78682870161100f565b92505060406110f886828701611039565b9150509250925092565b6000806040838503121561111557600080fd5b60006111238582860161100f565b925050602061113485828601611039565b9150509250929050565b60006020828403121561115057600080fd5b600061115e84828501611024565b91505092915050565b61117081611459565b82525050565b61117f8161146b565b82525050565b6000611190826113b3565b61119a81856113be565b93506111aa8185602086016114ae565b6111b381611571565b840191505092915050565b60006111cb6011836113be565b91507f6d61746820616464206f766572666c6f770000000000000000000000000000006000830152602082019050919050565b600061120b6012836113be565b91507f6d6174682073756220756e646572666c6f7700000000000000000000000000006000830152602082019050919050565b600061124b601b836113be565b91507f496e7375666669656e7420746f6b656e20746f2062652073656e7400000000006000830152602082019050919050565b61128781611497565b82525050565b611296816114a1565b82525050565b60006020820190506112b16000830184611167565b92915050565b60006040820190506112cc6000830185611167565b6112d9602083018461127e565b9392505050565b60006020820190506112f56000830184611176565b92915050565b600060208201905081810360008301526113158184611185565b905092915050565b60006020820190508181036000830152611336816111be565b9050919050565b60006020820190508181036000830152611356816111fe565b9050919050565b600060208201905081810360008301526113768161123e565b9050919050565b6000602082019050611392600083018461127e565b92915050565b60006020820190506113ad600083018461128d565b92915050565b600081519050919050565b600082825260208201905092915050565b60006113da82611497565b91506113e583611497565b9250827fffffffffffffffffffffffffffffffffffffffffffffffffffffffffffffffff0382111561141a57611419611513565b5b828201905092915050565b600061143082611497565b915061143b83611497565b92508282101561144e5761144d611513565b5b828203905092915050565b600061146482611477565b9050919050565b60008115159050919050565b600073ffffffffffffffffffffffffffffffffffffffff82169050919050565b6000819050919050565b600060ff82169050919050565b60005b838110156114cc5780820151818401526020810190506114b1565b838111156114db576000848401525b50505050565b600060028204905060018216806114f957607f821691505b6020821081141561150d5761150c611542565b5b50919050565b7f4e487b7100000000000000000000000000000000000000000000000000000000600052601160045260246000fd5b7f4e487b7100000000000000000000000000000000000000000000000000000000600052602260045260246000fd5b6000601f19601f8301169050919050565b61158b81611459565b811461159657600080fd5b50565b6115a28161146b565b81146115ad57600080fd5b50565b6115b981611497565b81146115c457600080fd5b5056fea2646970667358221220289e51d83cbc7ba8756b309bd7ec1f4e2e906c1e7fdcd04c8cd673fe6042fbff64736f6c63430008000033",
  "immutableReferences": {},
  "source": "// SPDX-License-Identifier: MIT\n// ----------------------------------------------------------------------------\n// \"SELToken\" token contract\n//\n// Symbol      : SEL\n// Name        : SELToken\n// Total supply: 100000000\n// Decimals    : 18\n//\n// ----------------------------------------------------------------------------\n\nimport \"./SafeMath.sol\";\nimport \"./ERC20I.sol\";\npragma solidity ^0.8.0;\n/* By having the token to implements inherite this contract \n\tso that we can transfer the ownership of the token \t\n*/\ncontract Owner {\n\taddress public owner;\n\taddress public  newOwner;\t\n\tevent OwnershipTransferred(address indexed _from, address indexed _to);\n\tconstructor() {\n\t\t\towner = msg.sender;\n\t}\n\n\tmodifier onlyOnwer() {\n\t\t\trequire(owner == msg.sender);\n\t\t\t_;\n\t}\n\t/*\n    @dev Allows the current owner to transfer control of the contract to a newOwner.\n    @param newOwner The address to transfer ownership to.\n  \t\n\t*/\n\tfunction transferOwnership(address _newOwner) public onlyOnwer {\n\t\t\tnewOwner = _newOwner;\n\t}\n\tfunction acceptOwnership() public {\n\t\trequire(newOwner == msg.sender);\n\t\temit OwnershipTransferred(owner, newOwner);\n\t\towner = newOwner;\n\t\tnewOwner = address(0);\n\t}\n}\ncontract SELToken is ERC20I, Owner{\n\tusing SafeMath for uint256;\n\n\tstring public symbols;\n\tstring public name;\n\tuint8 public decimals;\n\tuint public totalSupply_;\n    /* define an associative array whose keys are of type \"address\" to denote account number \n\t and whose value are used to store token balances\t*/\n\tmapping(address => uint) balances;\n\t/*\n\t\tthe second mapping object, allowed , will include all of the accounts approved to withdraw from a given\n\t\taccount together with the withdrawal sum allowed for each As you can see , the value field of allowed mapping is by itself\n\t\ta mapping plotting account adddress to its approved withdrawal sum.\t\t\n\t*/\n\tmapping(address => mapping(address => uint)) allowed;\n\n\tconstructor(uint total)  {\n\t\tsymbols = \"SEL\";\n\t\tname = \"SELToken\";\n\t\tdecimals = 18;\n\t\ttotalSupply_ = total * (10 ** decimals);\n\t\tbalances[msg.sender] = totalSupply_;\n\t\temit Transfer(address(0), msg.sender, totalSupply_);\n\t}\n\tfunction totalSupply() virtual public view override  returns (uint) {\n\t\t\treturn totalSupply_;\n\t}\n\tfunction balanceOf(address tokenOwner) virtual public view override  returns (uint balance) {\n\n\t\t\treturn balances[tokenOwner];\n\t}\t\n\tfunction allowance(address tokenOwner, address spender) virtual public view override returns (uint remaining) {\n\n\t\treturn allowed[tokenOwner][spender];\t\n\t}\n\tfunction transfer(address to, uint tokens) virtual public override returns (bool success) {\n\t\t\trequire(tokens <=balances[msg.sender], \"Insuffient token to be sent\");\n\t\t\tbalances[msg.sender] = balances[msg.sender].sub(tokens);\n\t\t\tbalances[to] = balances[to].add(tokens);\n\t\t\temit Transfer(msg.sender, to,  tokens);\n\t\t\treturn true;\n\t}\n\t/* \n\tIn short, delegated transaction, or \"meta transaction\" \n\tin blockchain is the type of transaction which performs \n\tan intended action on one account's behalf, while it is \n\tconducted (published) by another account (delegate), who actually pays fees for the transaction.\n\n\t*/\n\tfunction approve(address spender, uint tokens) virtual public override returns (bool success)\n\t{\n\t\t\tallowed[msg.sender][spender] = tokens;\n\t\t\temit Approval(msg.sender, spender, tokens);\n\t\t\treturn true;\n\t}\n\tfunction transferFrom(address from, address to, uint tokens) virtual public override returns (bool success){\n\t\t\trequire(tokens <=balances[from]);\n\t\t\trequire(tokens <= allowed[from][to]);\n\t\t\tbalances[from] = balances[from].sub(tokens);\n\t\t\tallowed[from][msg.sender] = allowed[from][msg.sender].sub(tokens);\n\t\t\tbalances[to] = balances[to].add(tokens);\n\t\t\temit Transfer(from, to, tokens);\n\t\t\treturn true;\n\t}\n\t// Owner can transfer out any  ERC20 tokens\n\tfunction transferTokenImplERC20(address tokenAddress, uint tokens) public onlyOnwer returns(bool success) {\n\t\treturn ERC20I(tokenAddress).transfer(owner, tokens);\n\t}\n}\n\n\n",
  "sourcePath": "/home/sna/project/bitriel-swap/contracts/SelToken.sol",
  "compiler": {
    "name": "solc",
    "version": "0.8.0+commit.c7dfd78e.Emscripten.clang"
  },
  "schemaVersion": "3.4.1",
  "updatedAt": "2021-06-08T15:29:03.829Z",
  "devdoc": {
    "kind": "dev",
    "methods": {},
    "version": 1
  },
  "userdoc": {
    "kind": "user",
    "methods": {},
    "version": 1
  }
}